:100000000C947C000C94A4000C94A4000C94A40008
:100010000C94A4000C94A4000C94A4000C94A400D0
:100020000C94A4000C94A4000C94A4000C94A400C0
:100030000C94A4000C94A4000C94A4000C94A400B0
:100040000C9408030C94A4000C94D6020C94B002F7
:100050000C94A4000C94A4000C94A4000C94A40090
:100060000C9452030C94A4007A078F078F078E0715
:100070008F076C078F078F078F076E078F078F0714
:1000800081078C078A078F078F078F07880731330F
:100090003A33343A333100417567203139203230F8
:1000A0003137001F1C1F1E1F1E1F1F1E1F1E1F007B
:1000B000000000250028002B0004040404040404AC
:1000C0000402020202020203030303030301020407
:1000D00008102040800102040810200102040810CA
:1000E00020000000080002010000030407000000D7
:1000F000000000000000790911241FBECFEFD8E0F6
:10010000DEBFCDBF23E0A2EBB1E001C01D92A0365F
:10011000B207E1F711E0A0E0B1E0E8E3F4E102C0EA
:1001200005900D92A23BB107D9F710E0CCE7D0E0E3
:1001300004C02197FE010E940F0ACB37D107C9F7EF
:100140000E942E060C941A0A0C940000FC01538D98
:10015000448D252F30E0842F90E0821B930B5417A1
:1001600010F0CF96089501970895FC01918D828D2E
:10017000981761F0828DDF01A80FB11D5D968C91FB
:10018000928D9F5F9F73928F90E008958FEF9FEF06
:100190000895FC01918D828D981731F0828DE80FC2
:1001A000F11D858D90E008958FEF9FEF0895FC017C
:1001B000918D228D892F90E0805C9F4F821B910949
:1001C0008F73992708958FE692E00E94D70021E06F
:1001D000892B09F420E0822F0895FC01848DDF0132
:1001E000A80FB11DA35ABF4F2C91848D90E00196AA
:1001F0008F739927848FA689B7892C93A089B18999
:100200008C9180648C93938D848D981306C00288A2
:10021000F389E02D80818F7D80830895EF92FF9296
:100220000F931F93CF93DF93EC0181E0888F9B8D19
:100230008C8D981305C0E889F989808185FD24C0DB
:10024000F62E0B8D10E00F5F1F4F0F731127E02E5E
:100250008C8DE8120CC00FB607FCFACFE889F9893B
:10026000808185FFF5CFCE010E94ED00F1CF8B8D0F
:10027000FE01E80FF11DE35AFF4FF0820B8FEA8970
:10028000FB898081806207C0EE89FF896083E889ED
:10029000F98980818064808381E090E0DF91CF9153
:1002A0001F910F91FF90EF900895CF93DF93EC0192
:1002B000888D8823C9F0EA89FB89808185FD05C086
:1002C000A889B9898C9186FD0FC00FB607FCF5CFC0
:1002D000808185FFF2CFA889B9898C9185FFEDCF08
:1002E000CE010E94ED00E7CFDF91CF91089580E02D
:1002F00090E0892B29F00E94E30081110C9400000A
:1003000008953FB7F8948091FA019091FB01A09174
:10031000FC01B091FD0126B5A89B05C02F3F19F047
:100320000196A11DB11D3FBFBA2FA92F982F882775
:10033000820F911DA11DB11DBC01CD0142E0660FD0
:10034000771F881F991F4A95D1F708958F929F9222
:10035000AF92BF92CF92DF92EF92FF926B017C013E
:100360000E9481014B015C01C114D104E104F1043C
:10037000F1F00E948101DC01CB0188199909AA09D9
:10038000BB09883E9340A105B10570F321E0C21A74
:10039000D108E108F10888EE880E83E0981EA11CC0
:1003A000B11CC114D104E104F10419F7DDCFFF90B1
:1003B000EF90DF90CF90BF90AF909F908F90089577
:1003C000FC01908190539A3008F090E08181805335
:1003D0002AE0929F800D1124089585ED8093BC0042
:1003E0008091BC0084FDFCCF10924A020895409198
:1003F000D401262F30E0240F311D21323105DCF4E9
:1004000020914A022430C9F4FC0180E090E0861774
:1004100058F43091D4012191DC01AE54BE4FA30FAA
:10042000B11D2C930196F3CF8091D401680F609396
:10043000D40180E0089581E0089582E00895089550
:10044000E091FF018091FE01E81730F4F0E0EC5FED
:10045000FD4F808190E008958FEF9FEF0895909178
:10046000FF018091FE01981750F4E92FF0E0EC5F56
:10047000FD4F208130E09F5F9093FF0102C02FEF7E
:100480003FEFC90108958091FE0190E02091FF01A6
:10049000821B91090895CF92DF92EF92FF920F9302
:1004A0001F93CF93DF937C01262F972F8A01809192
:1004B0004B02882391F0C62FD72F6E01C40ED51E94
:1004C000CC15DD0571F06991D701ED91FC9101909A
:1004D000F081E02DC7010995F3CF642F822F0E9490
:1004E000F701C801DF91CF911F910F91FF90EF901D
:1004F000DF90CF900895CF93DF931F92CDB7DEB7F3
:10050000698320914B022223D1F020916E02203288
:1005100040F021E030E0FC013383228380E090E072
:1005200015C080914C02E82FF0E0E35BFD4F99810C
:1005300090838F5F80934C0280936E0205C061E0D0
:10054000CE0101960E94F70181E090E00F90DF91CB
:10055000CF910895089580E090E008950E94150AD3
:100560001F920F920FB60F9211242F933F934F9328
:100570005F936F937F938F939F93AF93BF93EF930B
:10058000FF938FE692E00E94ED00FF91EF91BF9103
:10059000AF919F918F917F916F915F914F913F911B
:1005A0002F910F900FBE0F901F9018951F920F92D2
:1005B0000FB60F9211242F938F939F93EF93FF9376
:1005C000E0917F02F09180028081E0918502F091BC
:1005D000860282FD12C09081809188028F5F8F73A6
:1005E00020918902821751F0E0918802F0E0E159F0
:1005F000FD4F958F8093880201C08081FF91EF911C
:100600009F918F912F910F900FBE0F901F90189573
:100610001F920F920FB60F9211242F933F938F9337
:100620009F93AF93BF938091000290910102A0919C
:100630000202B09103023091F90123E0230F2D371C
:1006400020F40196A11DB11D05C026E8230F0296D6
:10065000A11DB11D2093F901809300029093010226
:10066000A0930202B09303028091FA019091FB01E2
:10067000A091FC01B091FD010196A11DB11D8093D7
:10068000FA019093FB01A093FC01B093FD01BF918F
:10069000AF919F918F913F912F910F900FBE0F902F
:1006A0001F9018951F920F920FB60F9211242F933F
:1006B0003F934F935F936F937F938F939F93AF93EA
:1006C000BF93EF93FF938091B900887F803609F440
:1006D0009CC068F5883209F45BC090F4803109F45D
:1006E00054C038F4882309F4F6C0883009F44DC0AA
:1006F000F6C0883109F44CC0803209F45DC0EFC007
:10070000803409F468C048F4803309F455C0883354
:1007100009F0E5C080934802D8C0803509F44FC085
:10072000883509F45DC0883409F0D9C0D6C088394D
:1007300009F4C7C0A8F4883709F467C038F48836CC
:1007400009F463C0803709F460C0C9C0883809F46F
:10075000B8C0803909F45FC0803809F0C0C05BC000
:10076000803B09F486C038F4803A09F466C0883AC0
:1007700009F47FC0B4C0803C09F4A7C0883C09F4E8
:10078000A4C0883B09F48AC0AAC08091250210C089
:100790009091470280914602981770F5E0914702C8
:1007A00081E08E0F80934702F0E0EA5DFD4F80818B
:1007B0008093BB0085EC86C0809348028EC0E09198
:1007C000470281E08E0F809347028091BB00F0E0EA
:1007D000EA5DFD4F808390914702809146026EC092
:1007E000E091470281E08E0F809347028091BB0029
:1007F000F0E0EA5DFD4F80838091490281116DC078
:1008000081E08093240284EA61C083E080934A02FD
:100810001092F801CFCF8091F801803208F051C0DA
:10082000E091F80181E08E0F8093F8018091BB0088
:10083000F0E0E852FE4F8083BDCF85EC8093BC0092
:1008400010924A028091F801803230F4E091F80170
:10085000F0E0E852FE4F10826091F80170E0E09104
:10086000D601F091D70188ED91E009951092F80139
:1008700036C084E080934A021092D5011092D401D0
:10088000E091D201F091D30109958091D4018111B9
:1008900005C081E08093D4011092B201E091D501AE
:1008A00081E08E0F8093D501F0E0EE54FE4F808101
:1008B0008093BB009091D5018091D401981708F4E2
:1008C00079CF85E88093BC000AC085EC8093BC009A
:1008D00010924A0204C0109248020E94ED01FF915A
:1008E000EF91BF91AF919F918F917F916F915F91A8
:1008F0004F913F912F910F900FBE0F901F90189521
:10090000CF92DF92EF92FF920F931F93CF93DF93DB
:100910006C017A018B01C0E0D0E0CE15DF0589F0D3
:10092000D8016D918D01D601ED91FC910190F0817E
:10093000E02DC6010995892B11F47E0102C0219694
:10094000ECCFC701DF91CF911F910F91FF90EF90F6
:10095000DF90CF90089520916E0290916D02213228
:1009600008F04AC080914A028111FCCF32E03093F6
:100970004A0231E0309349023FEF3093480210922F
:10098000470220934602ADE4B2E046E252E0FA01AB
:100990003E2F341B321718F43D913193F9CF10924A
:1009A000250220912502990F922B90932502909178
:1009B0002402913061F410922402909125029093C8
:1009C000BB009091BC0093FDF8CF95EC01C095EE73
:1009D0009093BC0090914A029230E1F390914802CA
:1009E0009F3F79F080914802803241F08091480227
:1009F000803331F084E005C081E003C082E001C0B3
:100A000083E010924C0210926E0210924B020895F5
:100A100090914A029111FCCF91E090934A029093F9
:100A200049022FEF2093480210924702260F20938D
:100A300046029093250290912502880F892B80937E
:100A4000250280912402813061F410922402809169
:100A500025028093BB008091BC0083FDF8CF85EC1C
:100A600001C085EE8093BC0080914A028130E1F3A1
:100A700080914702861710F460914702A6E2B2E027
:100A800024E032E0F9018E2F821B861718F48D9135
:100A90008193F9CF862F089590E0FC01EF51FF4F2D
:100AA0002491FC01E353FF4F3491FC01E754FF4FC5
:100AB000E491EE23B1F1222339F1233091F038F49F
:100AC0002130A9F0223001F584B58F7D12C0273086
:100AD00091F02830A1F02430B9F4809180008F7D0E
:100AE00003C0809180008F77809380000DC084B513
:100AF0008F7784BD09C08091B0008F7703C080914B
:100B0000B0008F7D8093B000F0E0EE0FFF1FE15545
:100B1000FF4FA591B4918FB7F894EC913E2B3C9385
:100B20008FBF0895CF92DF92EF92FF920F931F93A2
:100B30002FB7F894C0900002D0900102E09002021A
:100B4000F09003022FBFDC01CB018C0D9D1DAE1D6B
:100B5000BF1D4FB7F894009100021091010220913F
:100B60000202309103024FBF0C151D052E053F05F3
:100B700028F080179107A207B30758F71F910F912C
:100B8000FF90EF90DF90CF900895E0916F02F09189
:100B900070020190F081E02D682F8FE692E00994B9
:100BA0006115710579F0FB0101900020E9F731979B
:100BB000AF01461B570BDC01ED91FC910280F381E4
:100BC000E02D099480E090E008954F925F926F923B
:100BD0007F92EF92FF920F931F93CF93DF93CDB746
:100BE000DEB7A1970FB6F894DEBF0FBECDBF7C0174
:100BF000FA01CB0119A2223008F42AE08E010F5D20
:100C00001F4F422E512C612C712CBF01A301920168
:100C10000E94CD09F901CA01015011096A3014F48A
:100C2000605D01C0695CD8016C93232B242B252BBC
:100C300061F7B801C7010E94D005A1960FB6F894DC
:100C4000DEBF0FBECDBFDF91CF911F910F91FF90FF
:100C5000EF907F906F905F904F900895CF93DF93C8
:100C6000CDB7DEB72B970FB6F894DEBF0FBECDBF62
:100C7000789484B5826084BD84B5816084BD85B577
:100C8000826085BD85B5816085BD80916E00816083
:100C900080936E0010928100809181008260809329
:100CA000810080918100816080938100809180002B
:100CB0008160809380008091B10084608093B10056
:100CC0008091B00081608093B00080917A00846050
:100CD00080937A0080917A00826080937A0080917C
:100CE0007A00816080937A0080917A008068809396
:100CF0007A001092C100109250031092510310928A
:100D000052031092530310920E0310920F0310928D
:100D100010031092110368EB7BE080E090E00E94EA
:100D200092058FE692E090934F0380934E03E091FB
:100D30007F02F091800282E0E82EE082E0917B0267
:100D4000F0917C021082E0917D02F0917E0280E1C0
:100D5000808310928702E0918302F091840296E0F2
:100D6000F92EF082E0918102F0918202808180610F
:100D70008083E0918102F09182028081886080838B
:100D8000E0918102F0918202808180688083E0910D
:100D90008102F091820280818F7D80832FB7F89449
:100DA0008091000290910102A0910202B091030291
:100DB0002FBF80930E0390930F03A0931003B09363
:100DC000110368E771E080914E0390914F030E94F8
:100DD000D0056AE070E080E090E00E94920501E0BA
:100DE00000932203E0917F02F0918002E082E09183
:100DF0007B02F0917C021082E0917D02F0917E02F4
:100E00008FEC808310928702E0918302F09184023C
:100E1000F082E0918102F091820280818061808382
:100E2000E0918102F0918202808188608083E0916C
:100E30008102F0918202808180688083E09181024A
:100E4000F091820280818F7D808368EB7BE080E07F
:100E500090E00E94A6011092FF011092FE011092F4
:100E60004C0210926E0210924A02009349021092B4
:100E7000240282E10E944C0583E10E944C0580918E
:100E8000B9008E7F8093B9008091B9008D7F8093E7
:100E9000B90088E48093B80085E48093BC004BE0FF
:100EA00050E067E970E0CE0101960E94C409CE01CE
:100EB0000A960E94E001082FE9814E2FEE0F550B94
:100EC000660B770BFA01E154F109E331F10538F5CE
:100ED000EC5CFF4F0C940F0A12E021C08A8181362E
:100EE00039F08B818E3611F017E019C016E017C06B
:100EF00011E015C08B81823711F018E010C014E0AA
:100F00000EC08B81823711F015E009C013E007C0D5
:100F100019E005C01AE003C01BE001C01CE0CE01CF
:100F200005960E94E001C82E48E050E06EE870E0AF
:100F3000CE0101960E94C409CE0101960E94E001F3
:100F4000B82ECE0104960E94E001A82ECE0107968D
:100F50000E94E001982EDD24D394D0924B02F8E653
:100F6000EF2EE0926D0210924C0210926E0260E041
:100F700084E593E00E947B02AAE0FA2E892D6F2D72
:100F80000E94EF09482F880F480F440F642F690D06
:100F900084E593E00E947B028A2D6F2D0E94EF0969
:100FA000382F880F380F330F632F6A0D84E593E0D5
:100FB0000E947B028B2D6F2D0E94EF09282F880F36
:100FC000280F220F622F6B0D84E593E00E947B02B5
:100FD00060E084E593E00E947B028C2D6F2D0E94DF
:100FE000EF09982F880F980F990F692F6C0D84E5E2
:100FF00093E00E947B02812F6F2D0E94EF09682FE2
:10100000660F860F880F682F610F84E593E00E94BA
:101010007B02802F6F2D0E94EF09682F660F680FEB
:10102000660F600F84E593E00E947B020E94AB0490
:10103000D0924B02E0926D0210924C0210926E021E
:101040006FE084E593E00E947B020E94AB0461E0C4
:1010500088E60E9408051092FF018093FE0184E556
:1010600093E00E942F02182FD0924B02E0926D0263
:1010700010924C0210926E026FE084E593E00E94A1
:101080007B02612F6F7784E593E00E947B020E94D0
:10109000AB0466246394BAEF7B2E83EA90E0362C8F
:1010A000381A1DE6812E9924939407E0A02EB12CC6
:1010B00060924B0228E620936D0210924C0210922F
:1010C0006E0260E084E593E00E947B020E94AB0424
:1010D00067E088E60E9408051092FF018093FE01F8
:1010E00084E593E00E942F028F77982F92959F704E
:1010F000082F979D000D112484E593E00E942F0294
:101100009C01332744E0359527954A95E1F7F82E61
:10111000729EF00C112484E593E00E942F029C0142
:10112000332754E0359527955A95E1F7E82E729EBE
:10113000E00C112484E593E00E942F0284E593E003
:101140000E942F029C01332764E0359527956A950C
:10115000E1F7182F729E100D112484E593E00E9490
:101160002F029C01332774E0359527957A95E1F796
:10117000282E729E200C112484E593E00E942F02F9
:101180009C013327E4E035952795EA95E1F7729EB7
:10119000800D1124482E512C620180E3C81A88EF7B
:1011A000D80A6AE871E08FE692E00E94D005412FEC
:1011B00050E0E3EAF0E0832D8E0F821528F484914D
:1011C000480F511D3196F7CF22E0221538F4C201A5
:1011D00083709927892B11F44F5F5F4F489CB001B2
:1011E000499C700D589C700D1124C6018D5C974070
:1011F0009695879596958795860F971F0596840FE8
:10120000951FB5010E94FB092CE0289FB001299F82
:10121000700D112460507F4F8FE692E00E94D00540
:1012200065E971E08FE692E00E94D005422D50E022
:1012300060E070E02AE08FE692E00E94E5058FE230
:101240000E94C505412F50E060E070E02AE08FE683
:1012500092E00E94E5058FE20E94C505A601DD0C23
:10126000660B770B2AE08FE692E00E94E50564EAC0
:1012700071E08FE692E00E94D00567E871E08FE6AA
:1012800092E00E94D0054E2D50E060E070E02AE030
:101290008FE692E00E94E5058AE30E94C5054F2D86
:1012A00050E060E070E02AE08FE692E00E94E50501
:1012B0008AE30E94C505402F50E060E070E02AE01C
:1012C0008FE692E00E94E50567E871E08FE692E024
:1012D0000E94D00567E871E08FE692E00E94D00599
:1012E00068EE73E080E090E00E94A6010E94770122
:1012F000DFCEEFE6F2E01382128288EE93E0A0E008
:10130000B0E084839583A683B78328E531E03183F9
:10131000208325EC30E03587248724EC30E03787C4
:10132000268720EC30E0318B208B21EC30E0338BB2
:10133000228B22EC30E0358B248B26EC30E0378B8F
:10134000268B118E128E138E148EECE0F3E0168233
:1013500017821086118612861386148615861686C5
:101360001786108A118A128A138A148A158AE4E56C
:10137000F3E01382128284839583A683B7838AE67F
:1013800091E0918380830895FB01DC0102C0059008
:101390000D9241505040D8F70895A1E21A2EAA1B91
:1013A000BB1BFD010DC0AA1FBB1FEE1FFF1FA21715
:1013B000B307E407F50720F0A21BB30BE40BF50B12
:1013C000661F771F881F991F1A9469F7609570959B
:1013D000809590959B01AC01BD01CF010895991BAB
:1013E00079E004C0991F961708F0961B881F7A951C
:1013F000C9F780950895AA1BBB1B51E107C0AA1F1E
:10140000BB1FA617B70710F0A61BB70B881F991FA5
:101410005A95A9F780959095BC01CD010895EE0FDE
:10142000FF1F0590F491E02D099481E090E0F8947D
:081430000C941A0AF894FFCF96
:1014380053756E6461790000000000004D6F6E64A2
:1014480061790000000000005475657364617900DB
:10145800000000005765646E6573646179000000E0
:10146800546875727364617900000000467269649B
:10147800617900000000000053617475726461793D
:1014880000000000000000000E018004A6005501C5
:10149800D700B500C900000000007B024B02AB0278
:1014A8001F0243022F022002564D4450565F317CE2
:1014B800315F564D4450560D0A00546F64617920CF
:1014C80049733A20002054686520446174652049B6
:1014D800733A20005468652054696D652049733A51
:0214E8002000E2
:107E0000112484B714BE81FFF0D085E080938100F7
:107E100082E08093C00088E18093C10086E0809377
:107E2000C20080E18093C4008EE0C9D0259A86E02C
:107E300020E33CEF91E0309385002093840096BBD3
:107E4000B09BFECF1D9AA8958150A9F7CC24DD24C4
:107E500088248394B5E0AB2EA1E19A2EF3E0BF2EE7
:107E6000A2D0813461F49FD0082FAFD0023811F036
:107E7000013811F484E001C083E08DD089C08234E0
:107E800011F484E103C0853419F485E0A6D080C0E4
:107E9000853579F488D0E82EFF2485D0082F10E0AE
:107EA000102F00270E291F29000F111F8ED06801E7
:107EB0006FC0863521F484E090D080E0DECF843638
:107EC00009F040C070D06FD0082F6DD080E0C81688
:107ED00080E7D80618F4F601B7BEE895C0E0D1E017
:107EE00062D089930C17E1F7F0E0CF16F0E7DF06D8
:107EF00018F0F601B7BEE89568D007B600FCFDCFD4
:107F0000A601A0E0B1E02C9130E011968C91119780
:107F100090E0982F8827822B932B1296FA010C0160
:107F200087BEE89511244E5F5F4FF1E0A038BF0790
:107F300051F7F601A7BEE89507B600FCFDCF97BE46
:107F4000E89526C08437B1F42ED02DD0F82E2BD052
:107F50003CD0F601EF2C8F010F5F1F4F84911BD097
:107F6000EA94F801C1F70894C11CD11CFA94CF0C13
:107F7000D11C0EC0853739F428D08EE10CD085E9AC
:107F80000AD08FE07ACF813511F488E018D01DD067
:107F900080E101D065CF982F8091C00085FFFCCF94
:107FA0009093C60008958091C00087FFFCCF809118
:107FB000C00084FD01C0A8958091C6000895E0E648
:107FC000F0E098E1908380830895EDDF803219F02E
:107FD00088E0F5DFFFCF84E1DECF1F93182FE3DFCA
:107FE0001150E9F7F2DF1F91089580E0E8DFEE27F6
:047FF000FF270994CA
:027FFE00040479
:0400000300007E007B
:00000001FF