:100000000C947C000C94A4000C94A4000C94A40008
:100010000C94A4000C94A4000C94A4000C94A400D0
:100020000C94A4000C94A4000C94A4000C94A400C0
:100030000C94A4000C94A4000C94A4000C94A400B0
:100040000C943E040C94A4000C940C040C94E60351
:100050000C94A4000C94A4000C94A4000C94A40090
:100060000C9488040C94A400D106E606E606E50686
:10007000E606C306E606E606E606C506E606E60664
:10008000D806E306E106E606E606E606DF061F1CDE
:100090001F1E1F1E1F1F1E1F1E1F31313A34383AEC
:1000A0003239004F63742033312032303137000051
:1000B000000000250028002B0004040404040404AC
:1000C0000402020202020203030303030301020407
:1000D00008102040800102040810200102040810CA
:1000E00020000000080002010000030407000000D7
:1000F000000000000000B60511241FBECFEFD8E0BD
:10010000DEBFCDBF11E0A0E0B1E0E0E3F2E102C06C
:1001100005900D92A43AB107D9F723E0A4EAB1E023
:1001200001C01D92AB30B207E1F710E0CCE7D0E0A0
:1001300004C02197FE010E940B09CB37D107C9F7F4
:100140000E94EF050C9416090C94000090E0FC014D
:10015000EF51FF4F2491FC01E353FF4F3491FC0119
:10016000E754FF4FE491EE23B1F1222339F123301C
:1001700091F038F42130A9F0223001F584B58F7D5B
:1001800012C0273091F02830A1F02430B9F48091CA
:1001900080008F7D03C0809180008F7780938000E6
:1001A0000DC084B58F7784BD09C08091B0008F7772
:1001B00003C08091B0008F7D8093B000F0E0EE0F1F
:1001C000FF1FE155FF4FA591B4918FB7F894EC91C3
:1001D0003E2B3C938FBF0895E0916202F091630241
:1001E0000190F081E02D682F82E692E009949091D1
:1001F00061029111FCCF91E09093610290936002B3
:100200002FEF20935F0210925E02260F20935D0273
:1002100090935C0290915C02880F892B80935C0222
:1002200080915B02813061F410925B0280915C02EC
:100230008093BB008091BC0083FDF8CF85EC01C0AA
:1002400085EE8093BC00809161028130E1F3809162
:100250005E02861710F460915E02ABE3B2E02BE120
:1002600032E0F9018E2F821B861718F48D9181934D
:10027000F9CF862F089520911A0290911902213208
:1002800008F04AC0809161028111FCCF32E03093C6
:10029000610231E0309360023FEF30935F021092D1
:1002A0005E0220935D02A9EFB1E04BE352E0FA0158
:1002B0003E2F341B321718F43D913193F9CF109231
:1002C0005C0220915C02990F922B90935C029091BA
:1002D0005B02913061F410925B0290915C0290930A
:1002E000BB009091BC0093FDF8CF95EC01C095EE5A
:1002F0009093BC00909161029230E1F390915F0283
:100300009F3F79F080915F02803241F080915F02DF
:10031000803331F084E005C081E003C082E001C099
:1003200083E01092F80110921A021092F7010895DA
:10033000CF92DF92EF92FF920F931F93CF93DF93B1
:100340006C017A018B01C0E0D0E0CE15DF0589F0A9
:10035000D8016D918D01D601ED91FC910190F08154
:10036000E02DC6010995892B11F47E0102C021966A
:10037000ECCFC701DF91CF911F910F91FF90EF90CC
:10038000DF90CF900895FC01538D448D252F30E0F0
:10039000842F90E0821B930B541710F0CF96089592
:1003A00001970895FC01918D828D981761F0828DDF
:1003B000DF01A80FB11D5D968C91928D9F5F9F7399
:1003C000928F90E008958FEF9FEF0895FC01918D3B
:1003D000828D981731F0828DE80FF11D858D90E0A8
:1003E00008958FEF9FEF0895FC01918D228D892F45
:1003F00090E0805C9F4F821B91098F73992708952D
:1004000082E692E00E94F40121E0892B09F420E0C9
:10041000822F0895FC01848DDF01A80FB11DA35A1E
:10042000BF4F2C91848D90E001968F739927848F14
:10043000A689B7892C93A089B1898C9180648C930B
:10044000938D848D981306C00288F389E02D8081F6
:100450008F7D80830895EF92FF920F931F93CF9328
:10046000DF93EC0181E0888F9B8D8C8D981305C004
:10047000E889F989808185FD24C0F62E0B8D10E076
:100480000F5F1F4F0F731127E02E8C8DE8120CC0E9
:100490000FB607FCFACFE889F989808185FFF5CF8F
:1004A000CE010E940A02F1CF8B8DFE01E80FF11DF3
:1004B000E35AFF4FF0820B8FEA89FB8980818062CB
:1004C00007C0EE89FF896083E889F98980818064AB
:1004D000808381E090E0DF91CF911F910F91FF9099
:1004E000EF900895CF93DF93EC01888D8823C9F0B6
:1004F000EA89FB89808185FD05C0A889B9898C912D
:1005000086FD0FC00FB607FCF5CF808185FFF2CFC7
:10051000A889B9898C9185FFEDCFCE010E940A028E
:10052000E7CFDF91CF91089580E090E0892B29F00B
:100530000E94000281110C94000008953FB7F894C6
:100540008091F0019091F101A091F201B091F3013D
:1005500026B5A89B05C02F3F19F00196A11DB11D1E
:100560003FBFBA2FA92F982F8827820F911DA11D59
:10057000B11DBC01CD0142E0660F771F881F991F96
:100580004A95D1F70895FC01908190539A3008F074
:1005900090E0818180532AE0929F800D112408957C
:1005A00085ED8093BC008091BC0084FDFCCF10924F
:1005B000610208954091C601262F30E0240F311DBD
:1005C00021323105DCF4209161022430C9F4FC01B0
:1005D00080E090E0861758F43091C6012191DC014B
:1005E000AC55BE4FA30FB11D2C930196F3CF809154
:1005F000C601680F6093C60180E0089581E0089508
:1006000082E008950895E091F5018091F401E817E2
:1006100030F4F0E0E55EFD4F808190E008958FEFCB
:100620009FEF08959091F5018091F401981750F48F
:10063000E92FF0E0E55EFD4F208130E09F5F909371
:10064000F50102C02FEF3FEFC90108958091F40139
:1006500090E02091F501821B91090895CF92DF92DD
:10066000EF92FF920F931F93CF93DF937C01262F7E
:10067000972F8A018091F701882391F0C62FD72FF9
:100680006E01C40ED51ECC15DD0571F06991D70140
:10069000ED91FC910190F081E02DC7010995F3CF18
:1006A000642F822F0E94DA02C801DF91CF911F913F
:1006B0000F91FF90EF90DF90CF900895CF93DF934D
:1006C0001F92CDB7DEB769832091F7012223D1F0C5
:1006D00020911A02203240F021E030E0FC01338307
:1006E000228380E090E015C08091F801E82FF0E0CF
:1006F000E750FE4F998190838F5F8093F80180933C
:100700001A0205C061E0CE0101960E94DA0281E082
:1007100090E00F90DF91CF910895089580E090E0F0
:100720000895009769F0FC0101900020E9F73197E6
:10073000AF01481B590BBC0182E692E00C94980172
:1007400080E090E008958F929F92AF92BF920F93B6
:100750001F93CF93DF93CDB7DEB7A1970FB6F89471
:10076000DEBF0FBECDBF19A2423008F44AE08E01B1
:100770000F5D1F4F842E912CA12CB12CA50194014B
:100780000E94E908E62FB901CA0101501109EA30B7
:1007900014F4E05D01C0E95CD801EC93232B242B19
:1007A000252B61F7C8010E949103A1960FB6F8941A
:1007B000DEBF0FBECDBFDF91CF911F910F91BF90D4
:1007C000AF909F908F9008950E9411091F920F92F1
:1007D0000FB60F9211242F933F934F935F936F9314
:1007E0007F938F939F93AF93BF93EF93FF9382E693
:1007F00092E00E940A02FF91EF91BF91AF919F9109
:100800008F917F916F915F914F913F912F910F90B9
:100810000FBE0F901F9018951F920F920FB60F9258
:1008200011242F938F939F93EF93FF93E091720284
:10083000F09173028081E0917802F091790282FD5B
:1008400012C0908180917B028F5F8F7320917C0218
:10085000821751F0E0917B02F0E0EE59FD4F958F49
:1008600080937B0201C08081FF91EF919F918F91D6
:100870002F910F900FBE0F901F9018951F920F92FF
:100880000FB60F9211242F933F938F939F93AF93A3
:10089000BF938091EC019091ED01A091EE01B09198
:1008A000EF013091EB0123E0230F2D3720F4019667
:1008B000A11DB11D05C026E8230F0296A11DB11D83
:1008C0002093EB018093EC019093ED01A093EE0156
:1008D000B093EF018091F0019091F101A091F201AC
:1008E000B091F3010196A11DB11D8093F001909389
:1008F000F101A093F201B093F301BF91AF919F91E9
:100900008F913F912F910F900FBE0F901F901895D0
:100910001F920F920FB60F9211242F933F934F9374
:100920005F936F937F938F939F93AF93BF93EF9357
:10093000FF938091B900887F803609F49CC068F5E8
:10094000883209F45BC090F4803109F454C038F463
:10095000882309F4F6C0883009F44DC0F6C0883108
:1009600009F44CC0803209F45DC0EFC0803409F452
:1009700068C048F4803309F455C0883309F0E5C0F5
:1009800080935F02D8C0803509F44FC0883509F4E0
:100990005DC0883409F0D9C0D6C0883909F4C7C011
:1009A000A8F4883709F467C038F4883609F463C0BE
:1009B000803709F460C0C9C0883809F4B8C08039EC
:1009C00009F45FC0803809F0C0C05BC0803B09F407
:1009D00086C038F4803A09F466C0883A09F47FC0CA
:1009E000B4C0803C09F4A7C0883C09F4A4C0883B8B
:1009F00009F48AC0AAC080915C0210C090915E0286
:100A000080915D02981770F5E0915E0281E08E0F93
:100A100080935E02F0E0E55CFD4F80818093BB0037
:100A200085EC86C080935F028EC0E0915E0281E01B
:100A30008E0F80935E028091BB00F0E0E55CFD4F7D
:100A4000808390915E0280915D026EC0E0915E02B3
:100A500081E08E0F80935E028091BB00F0E0E55C48
:100A6000FD4F80838091600281116DC081E0809391
:100A70005B0284EA61C083E0809361021092EA0124
:100A8000CFCF8091EA01803208F051C0E091EA01B5
:100A900081E08E0F8093EA018091BB00F0E0E65385
:100AA000FE4F8083BDCF85EC8093BC001092610225
:100AB0008091EA01803230F4E091EA01F0E0E653FF
:100AC000FE4F10826091EA0170E0E091C801F09160
:100AD000C9018AEC91E009951092EA0136C084E0E0
:100AE000809361021092C7011092C601E091C40187
:100AF000F091C50109958091C601811105C081E081
:100B00008093C6011092A401E091C70181E08E0F8D
:100B10008093C701F0E0EC55FE4F80818093BB00CD
:100B20009091C7018091C601981708F479CF85E8A4
:100B30008093BC000AC085EC8093BC0010926102D7
:100B400004C010925F020E94D002FF91EF91BF910A
:100B5000AF919F918F917F916F915F914F913F9155
:100B60002F910F900FBE0F901F901895E2E6F2E0C4
:100B70001382128288EE93E0A0E0B0E08483958334
:100B8000A683B78328E531E03183208325EC30E06C
:100B90003587248724EC30E03787268720EC30E047
:100BA000318B208B21EC30E0338B228B22EC30E038
:100BB000358B248B26EC30E0378B268B118E128EF2
:100BC000138E148EEFEFF2E01382128284839583EA
:100BD000A683B7838AE691E0918380830895CF93BB
:100BE000DF93CDB7DEB72C970FB6F894DEBF0FBEFC
:100BF000CDBF789484B5826084BD84B5816084BDA6
:100C000085B5826085BD85B5816085BD80916E00AA
:100C1000816080936E0010928100809181008260DB
:100C20008093810080918100816080938100809118
:100C300080008160809380008091B1008460809307
:100C4000B1008091B00081608093B00080917A0003
:100C5000846080937A0080917A00826080937A0029
:100C600080917A00816080937A0080917A00806818
:100C700080937A001092C100E0917202F0917302A9
:100C800082E08083E0916E02F0916F021082E09129
:100C90007002F09171028FEC808310927A02E091E1
:100CA0007602F091770286E08083E0917402F09101
:100CB0007502808180618083E0917402F0917502F9
:100CC000808188608083E0917402F0917502808158
:100CD00080688083E0917402F091750280818F7D3D
:100CE00080831092F5011092F4011092F801109295
:100CF0001A021092610281E08093600210925B02FE
:100D000082E10E94A60083E10E94A6008091B900C2
:100D10008E7F8093B9008091B9008D7F8093B90058
:100D200088E48093B80085E48093BC0055245394F4
:100D300028E6422E3AE0632E8EE890E0252D281B0F
:100D40002C878091F601882309F4F2C04BE050E033
:100D500063EA70E0CE0101960E94C008CE010A96B7
:100D60000E94C302082FE9814E2FEE0F550B660B30
:100D7000770BFA01E154F109E331F10538F5EC5C48
:100D8000FF4F0C940B0912E021C08A81813639F0A3
:100D90008B818E3611F017E019C016E017C011E0F4
:100DA00015C08B81823711F018E010C014E00EC01E
:100DB0008B81823711F015E009C013E007C019E0FC
:100DC00005C01AE003C01BE001C01CE0CE0105967F
:100DD0000E94C302F82E48E050E06AE970E0CE01BC
:100DE00001960E94C008CE0101960E94C302E82E1F
:100DF000CE0104960E94C302D82ECE0107960E940F
:100E0000C302C82E5092F701409219021092F801C5
:100E100010921A0260E08FEF92E00E945E038C2D28
:100E2000662D0E94C908982F880F980F990F692F77
:100E30006C0D8FEF92E00E945E038D2D662D0E9457
:100E4000C908382F880F380F330F632F6D0D8FEFC0
:100E500092E00E945E038E2D662D0E94C908282F05
:100E6000880F280F220F622F6E0D8FEF92E00E94E5
:100E70005E0360E08FEF92E00E945E038F2D662D8F
:100E80000E94C908982F880F980F990F692F6F0D2E
:100E90008FEF92E00E945E03812F662D0E94C908A9
:100EA000682F660F680F660F610F8FEF92E00E9448
:100EB0005E03802F662D0E94C908682F660F860F7B
:100EC000880F682F600F8FEF92E00E945E030E94F0
:100ED0003B015092F7011092F80110921A026FE054
:100EE0008FEF92E00E945E030E943B0161E088E682
:100EF0000E94F7001092F5018093F4018FEF92E0C9
:100F00000E941203082F5092F7011092F8011092DC
:100F10001A026FE08FEF92E00E945E03602F6F77FE
:100F20008FEF92E00E945E030E943B011092F60157
:100F30005092F701409219021092F80110921A0291
:100F400060E08FEF92E00E945E030E943B0167E049
:100F500088E60E94F7001092F5018093F4018FEF6C
:100F600092E00E9412038F77982F92959F70EAEF7C
:100F7000FE2EB82E9F9DB00C11248FEF92E00E94A0
:100F800012039C013327F4E035952795FA95E1F794
:100F9000282EF29E200C11248FEF92E00E94120363
:100FA0009C013327A4E035952795AA95E1F7382EC3
:100FB000F29E300C11248FEF92E00E9412038FEF0B
:100FC00092E00E9412039C013327B4E035952795E7
:100FD000BA95E1F7782EF29E700C11248FEF92E013
:100FE0000E9412039C01332704E0359527950A954A
:100FF000E1F7082FF29E000D11248FEF92E00E947E
:1010000012039C01332794E0359527959A95E1F7D3
:10101000F29E800D1124E82EF12C670180E3C81A9E
:1010200088EFD80A88E791E00E949103272D30E0ED
:10103000EEE8F0E08C858E0F801728F48491280F5D
:10104000311D3196F7CF033038F0C70183709927EF
:10105000892B11F42F5F3F4F8DE691E0E89EA001B0
:10106000E99E500DF89E500D1124C6018D5C9740ED
:101070009695879596958795840F951F0596820F6F
:10108000931F67E070E00E94D5084CE0489F9001F4
:10109000499F300D1124C90180509F4F0E94910338
:1010A00083E891E00E949103602F70E080E090E07F
:1010B0004AE00E94A3038FE20E94EC00672D70E0DB
:1010C00080E090E04AE00E94A3038FE20E94EC00DF
:1010D000B601DD0C880B990B4AE00E94A30382E95C
:1010E00091E00E94910385E991E00E949103632DB4
:1010F00070E080E090E04AE00E94A3038AE30E944F
:10110000EC00622D70E080E090E04AE00E94A303D2
:101110008AE30E94EC006B2D70E080E090E04AE0F2
:101120000E94A30382E991E00E9491030E949E0223
:101130004B015C0178EEC72E73E0D72EE12CF12C29
:101140000E949E02DC01CB0188199909AA09BB09FA
:10115000883E9340A105B10558F091E0C91AD10825
:10116000E108F10828EE820E23E0921EA11CB11CBA
:10117000C114D104E104F10419F70E949402E1CDF5
:10118000FB01DC0102C005900D9241505040D8F7A0
:101190000895991B79E004C0991F961708F0961BD3
:1011A000881F7A95C9F780950895AA1BBB1B51E14A
:1011B00007C0AA1FBB1FA617B70710F0A61BB70BC7
:1011C000881F991F5A95A9F780959095BC01CD016C
:1011D0000895A1E21A2EAA1BBB1BFD010DC0AA1F78
:1011E000BB1FEE1FFF1FA217B307E407F50720F090
:1011F000A21BB30BE40BF50B661F771F881F991F0B
:101200001A9469F760957095809590959B01AC0153
:10121000BD01CF010895EE0FFF1F0590F491E02D61
:10122000099481E090E0F8940C941609F894FFCFAB
:1012300053756E6461790000000000004D6F6E64AC
:1012400061790000000000005475657364617900E5
:10125000000000005765646E6573646179000000EA
:1012600054687572736461790000000046726964A5
:101270006179000000000000536174757264617947
:1012800000000000000000002B029801C301720260
:10129000F401D201E601000000005E032E038E037C
:1012A0000203260312030303546F64617920497318
:1012B0003A20002054686520446174652049733ADF
:1012C00020000D0A005468652054696D652049733B
:0412D0003A200000C0
:00000001FF
